{"abi":[{"type":"constructor","inputs":[{"name":"rewardBasisPoints_","type":"uint64","internalType":"uint64"}],"stateMutability":"nonpayable"},{"type":"function","name":"BIPS_CONVERSION_FACTOR","inputs":[],"outputs":[{"name":"","type":"uint16","internalType":"uint16"}],"stateMutability":"view"},{"type":"function","name":"SECONDS_IN_YEAR","inputs":[],"outputs":[{"name":"","type":"uint256","internalType":"uint256"}],"stateMutability":"view"},{"type":"function","name":"UPTIME_REWARDS_THRESHOLD_PERCENTAGE","inputs":[],"outputs":[{"name":"","type":"uint8","internalType":"uint8"}],"stateMutability":"view"},{"type":"function","name":"calculateReward","inputs":[{"name":"stakeAmount","type":"uint256","internalType":"uint256"},{"name":"validatorStartTime","type":"uint64","internalType":"uint64"},{"name":"stakingStartTime","type":"uint64","internalType":"uint64"},{"name":"stakingEndTime","type":"uint64","internalType":"uint64"},{"name":"uptimeSeconds","type":"uint64","internalType":"uint64"}],"outputs":[{"name":"","type":"uint256","internalType":"uint256"}],"stateMutability":"view"},{"type":"function","name":"rewardBasisPoints","inputs":[],"outputs":[{"name":"","type":"uint64","internalType":"uint64"}],"stateMutability":"view"}],"bytecode":{"object":"0x60a0604052348015600e575f80fd5b5060405161036a38038061036a833981016040819052602b91603b565b6001600160401b03166080526066565b5f60208284031215604a575f80fd5b81516001600160401b0381168114605f575f80fd5b9392505050565b6080516102e66100845f395f818160c5015261016101526102e65ff3fe608060405234801561000f575f80fd5b5060043610610055575f3560e01c80634f22429f146100595780635dcc93911461007f578063a9778a7a1461008a578063afba878a146100a6578063bb65b242146100c0575b5f80fd5b61006c6100673660046101db565b610100565b6040519081526020015b60405180910390f35b61006c6301e1338081565b61009361271081565b60405161ffff9091168152602001610076565b6100ae605081565b60405160ff9091168152602001610076565b6100e77f000000000000000000000000000000000000000000000000000000000000000081565b60405167ffffffffffffffff9091168152602001610076565b5f605061010d8685610249565b6101179190610271565b67ffffffffffffffff1661012c836064610271565b67ffffffffffffffff16101561014357505f6101b6565b6127106301e133806101558686610249565b67ffffffffffffffff167f000000000000000000000000000000000000000000000000000000000000000067ffffffffffffffff1689610195919061029d565b61019f919061029d565b6101a991906102ba565b6101b391906102ba565b90505b95945050505050565b803567ffffffffffffffff811681146101d6575f80fd5b919050565b5f805f805f60a086880312156101ef575f80fd5b853594506101ff602087016101bf565b935061020d604087016101bf565b925061021b606087016101bf565b9150610229608087016101bf565b90509295509295909350565b634e487b7160e01b5f52601160045260245ffd5b67ffffffffffffffff82811682821603908082111561026a5761026a610235565b5092915050565b67ffffffffffffffff81811683821602808216919082811461029557610295610235565b505092915050565b80820281158282048414176102b4576102b4610235565b92915050565b5f826102d457634e487b7160e01b5f52601260045260245ffd5b50049056fea164736f6c6343000819000a","linkReferences":{}},"methodIdentifiers":{"BIPS_CONVERSION_FACTOR()":"a9778a7a","SECONDS_IN_YEAR()":"5dcc9391","UPTIME_REWARDS_THRESHOLD_PERCENTAGE()":"afba878a","calculateReward(uint256,uint64,uint64,uint64,uint64)":"4f22429f","rewardBasisPoints()":"bb65b242"},"id":92}