{
    "abi": [
        {
            "type": "constructor",
            "inputs": [
                {
                    "name": "init",
                    "type": "uint8",
                    "internalType": "enum ICMInitializable"
                }
            ],
            "stateMutability": "nonpayable"
        },
        {
            "type": "function",
            "name": "ADDRESS_LENGTH",
            "inputs": [],
            "outputs": [
                {
                    "name": "",
                    "type": "uint32",
                    "internalType": "uint32"
                }
            ],
            "stateMutability": "view"
        },
        {
            "type": "function",
            "name": "BLS_PUBLIC_KEY_LENGTH",
            "inputs": [],
            "outputs": [
                {
                    "name": "",
                    "type": "uint8",
                    "internalType": "uint8"
                }
            ],
            "stateMutability": "view"
        },
        {
            "type": "function",
            "name": "MAXIMUM_CHURN_PERCENTAGE_LIMIT",
            "inputs": [],
            "outputs": [
                {
                    "name": "",
                    "type": "uint8",
                    "internalType": "uint8"
                }
            ],
            "stateMutability": "view"
        },
        {
            "type": "function",
            "name": "MAXIMUM_REGISTRATION_EXPIRY_LENGTH",
            "inputs": [],
            "outputs": [
                {
                    "name": "",
                    "type": "uint64",
                    "internalType": "uint64"
                }
            ],
            "stateMutability": "view"
        },
        {
            "type": "function",
            "name": "P_CHAIN_BLOCKCHAIN_ID",
            "inputs": [],
            "outputs": [
                {
                    "name": "",
                    "type": "bytes32",
                    "internalType": "bytes32"
                }
            ],
            "stateMutability": "view"
        },
        {
            "type": "function",
            "name": "VALIDATOR_MANAGER_STORAGE_LOCATION",
            "inputs": [],
            "outputs": [
                {
                    "name": "",
                    "type": "bytes32",
                    "internalType": "bytes32"
                }
            ],
            "stateMutability": "view"
        },
        {
            "type": "function",
            "name": "WARP_MESSENGER",
            "inputs": [],
            "outputs": [
                {
                    "name": "",
                    "type": "address",
                    "internalType": "contract IWarpMessenger"
                }
            ],
            "stateMutability": "view"
        },
        {
            "type": "function",
            "name": "completeEndValidation",
            "inputs": [
                {
                    "name": "messageIndex",
                    "type": "uint32",
                    "internalType": "uint32"
                }
            ],
            "outputs": [],
            "stateMutability": "nonpayable"
        },
        {
            "type": "function",
            "name": "completeValidatorRegistration",
            "inputs": [
                {
                    "name": "messageIndex",
                    "type": "uint32",
                    "internalType": "uint32"
                }
            ],
            "outputs": [],
            "stateMutability": "nonpayable"
        },
        {
            "type": "function",
            "name": "getValidator",
            "inputs": [
                {
                    "name": "validationID",
                    "type": "bytes32",
                    "internalType": "bytes32"
                }
            ],
            "outputs": [
                {
                    "name": "",
                    "type": "tuple",
                    "internalType": "struct Validator",
                    "components": [
                        {
                            "name": "status",
                            "type": "uint8",
                            "internalType": "enum ValidatorStatus"
                        },
                        {
                            "name": "nodeID",
                            "type": "bytes",
                            "internalType": "bytes"
                        },
                        {
                            "name": "startingWeight",
                            "type": "uint64",
                            "internalType": "uint64"
                        },
                        {
                            "name": "messageNonce",
                            "type": "uint64",
                            "internalType": "uint64"
                        },
                        {
                            "name": "weight",
                            "type": "uint64",
                            "internalType": "uint64"
                        },
                        {
                            "name": "startedAt",
                            "type": "uint64",
                            "internalType": "uint64"
                        },
                        {
                            "name": "endedAt",
                            "type": "uint64",
                            "internalType": "uint64"
                        }
                    ]
                }
            ],
            "stateMutability": "view"
        },
        {
            "type": "function",
            "name": "getWeight",
            "inputs": [
                {
                    "name": "validationID",
                    "type": "bytes32",
                    "internalType": "bytes32"
                }
            ],
            "outputs": [
                {
                    "name": "",
                    "type": "uint64",
                    "internalType": "uint64"
                }
            ],
            "stateMutability": "view"
        },
        {
            "type": "function",
            "name": "initialize",
            "inputs": [
                {
                    "name": "settings",
                    "type": "tuple",
                    "internalType": "struct ValidatorManagerSettings",
                    "components": [
                        {
                            "name": "l1ID",
                            "type": "bytes32",
                            "internalType": "bytes32"
                        },
                        {
                            "name": "churnPeriodSeconds",
                            "type": "uint64",
                            "internalType": "uint64"
                        },
                        {
                            "name": "maximumChurnPercentage",
                            "type": "uint8",
                            "internalType": "uint8"
                        }
                    ]
                },
                {
                    "name": "initialOwner",
                    "type": "address",
                    "internalType": "address"
                }
            ],
            "outputs": [],
            "stateMutability": "nonpayable"
        },
        {
            "type": "function",
            "name": "initializeEndValidation",
            "inputs": [
                {
                    "name": "validationID",
                    "type": "bytes32",
                    "internalType": "bytes32"
                }
            ],
            "outputs": [],
            "stateMutability": "nonpayable"
        },
        {
            "type": "function",
            "name": "initializeValidatorRegistration",
            "inputs": [
                {
                    "name": "registrationInput",
                    "type": "tuple",
                    "internalType": "struct ValidatorRegistrationInput",
                    "components": [
                        {
                            "name": "nodeID",
                            "type": "bytes",
                            "internalType": "bytes"
                        },
                        {
                            "name": "blsPublicKey",
                            "type": "bytes",
                            "internalType": "bytes"
                        },
                        {
                            "name": "registrationExpiry",
                            "type": "uint64",
                            "internalType": "uint64"
                        },
                        {
                            "name": "remainingBalanceOwner",
                            "type": "tuple",
                            "internalType": "struct PChainOwner",
                            "components": [
                                {
                                    "name": "threshold",
                                    "type": "uint32",
                                    "internalType": "uint32"
                                },
                                {
                                    "name": "addresses",
                                    "type": "address[]",
                                    "internalType": "address[]"
                                }
                            ]
                        },
                        {
                            "name": "disableOwner",
                            "type": "tuple",
                            "internalType": "struct PChainOwner",
                            "components": [
                                {
                                    "name": "threshold",
                                    "type": "uint32",
                                    "internalType": "uint32"
                                },
                                {
                                    "name": "addresses",
                                    "type": "address[]",
                                    "internalType": "address[]"
                                }
                            ]
                        }
                    ]
                },
                {
                    "name": "weight",
                    "type": "uint64",
                    "internalType": "uint64"
                }
            ],
            "outputs": [
                {
                    "name": "validationID",
                    "type": "bytes32",
                    "internalType": "bytes32"
                }
            ],
            "stateMutability": "nonpayable"
        },
        {
            "type": "function",
            "name": "initializeValidatorSet",
            "inputs": [
                {
                    "name": "conversionData",
                    "type": "tuple",
                    "internalType": "struct ConversionData",
                    "components": [
                        {
                            "name": "l1ID",
                            "type": "bytes32",
                            "internalType": "bytes32"
                        },
                        {
                            "name": "validatorManagerBlockchainID",
                            "type": "bytes32",
                            "internalType": "bytes32"
                        },
                        {
                            "name": "validatorManagerAddress",
                            "type": "address",
                            "internalType": "address"
                        },
                        {
                            "name": "initialValidators",
                            "type": "tuple[]",
                            "internalType": "struct InitialValidator[]",
                            "components": [
                                {
                                    "name": "nodeID",
                                    "type": "bytes",
                                    "internalType": "bytes"
                                },
                                {
                                    "name": "blsPublicKey",
                                    "type": "bytes",
                                    "internalType": "bytes"
                                },
                                {
                                    "name": "weight",
                                    "type": "uint64",
                                    "internalType": "uint64"
                                }
                            ]
                        }
                    ]
                },
                {
                    "name": "messageIndex",
                    "type": "uint32",
                    "internalType": "uint32"
                }
            ],
            "outputs": [],
            "stateMutability": "nonpayable"
        },
        {
            "type": "function",
            "name": "owner",
            "inputs": [],
            "outputs": [
                {
                    "name": "",
                    "type": "address",
                    "internalType": "address"
                }
            ],
            "stateMutability": "view"
        },
        {
            "type": "function",
            "name": "registeredValidators",
            "inputs": [
                {
                    "name": "nodeID",
                    "type": "bytes",
                    "internalType": "bytes"
                }
            ],
            "outputs": [
                {
                    "name": "",
                    "type": "bytes32",
                    "internalType": "bytes32"
                }
            ],
            "stateMutability": "view"
        },
        {
            "type": "function",
            "name": "renounceOwnership",
            "inputs": [],
            "outputs": [],
            "stateMutability": "nonpayable"
        },
        {
            "type": "function",
            "name": "resendEndValidatorMessage",
            "inputs": [
                {
                    "name": "validationID",
                    "type": "bytes32",
                    "internalType": "bytes32"
                }
            ],
            "outputs": [],
            "stateMutability": "nonpayable"
        },
        {
            "type": "function",
            "name": "resendRegisterValidatorMessage",
            "inputs": [
                {
                    "name": "validationID",
                    "type": "bytes32",
                    "internalType": "bytes32"
                }
            ],
            "outputs": [],
            "stateMutability": "nonpayable"
        },
        {
            "type": "function",
            "name": "transferOwnership",
            "inputs": [
                {
                    "name": "newOwner",
                    "type": "address",
                    "internalType": "address"
                }
            ],
            "outputs": [],
            "stateMutability": "nonpayable"
        },
        {
            "type": "event",
            "name": "InitialValidatorCreated",
            "inputs": [
                {
                    "name": "validationID",
                    "type": "bytes32",
                    "indexed": true,
                    "internalType": "bytes32"
                },
                {
                    "name": "nodeID",
                    "type": "bytes",
                    "indexed": true,
                    "internalType": "bytes"
                },
                {
                    "name": "weight",
                    "type": "uint64",
                    "indexed": false,
                    "internalType": "uint64"
                }
            ],
            "anonymous": false
        },
        {
            "type": "event",
            "name": "Initialized",
            "inputs": [
                {
                    "name": "version",
                    "type": "uint64",
                    "indexed": false,
                    "internalType": "uint64"
                }
            ],
            "anonymous": false
        },
        {
            "type": "event",
            "name": "OwnershipTransferred",
            "inputs": [
                {
                    "name": "previousOwner",
                    "type": "address",
                    "indexed": true,
                    "internalType": "address"
                },
                {
                    "name": "newOwner",
                    "type": "address",
                    "indexed": true,
                    "internalType": "address"
                }
            ],
            "anonymous": false
        },
        {
            "type": "event",
            "name": "ValidationPeriodCreated",
            "inputs": [
                {
                    "name": "validationID",
                    "type": "bytes32",
                    "indexed": true,
                    "internalType": "bytes32"
                },
                {
                    "name": "nodeID",
                    "type": "bytes",
                    "indexed": true,
                    "internalType": "bytes"
                },
                {
                    "name": "registerValidationMessageID",
                    "type": "bytes32",
                    "indexed": true,
                    "internalType": "bytes32"
                },
                {
                    "name": "weight",
                    "type": "uint64",
                    "indexed": false,
                    "internalType": "uint64"
                },
                {
                    "name": "registrationExpiry",
                    "type": "uint64",
                    "indexed": false,
                    "internalType": "uint64"
                }
            ],
            "anonymous": false
        },
        {
            "type": "event",
            "name": "ValidationPeriodEnded",
            "inputs": [
                {
                    "name": "validationID",
                    "type": "bytes32",
                    "indexed": true,
                    "internalType": "bytes32"
                },
                {
                    "name": "status",
                    "type": "uint8",
                    "indexed": true,
                    "internalType": "enum ValidatorStatus"
                }
            ],
            "anonymous": false
        },
        {
            "type": "event",
            "name": "ValidationPeriodRegistered",
            "inputs": [
                {
                    "name": "validationID",
                    "type": "bytes32",
                    "indexed": true,
                    "internalType": "bytes32"
                },
                {
                    "name": "weight",
                    "type": "uint64",
                    "indexed": false,
                    "internalType": "uint64"
                },
                {
                    "name": "timestamp",
                    "type": "uint256",
                    "indexed": false,
                    "internalType": "uint256"
                }
            ],
            "anonymous": false
        },
        {
            "type": "event",
            "name": "ValidatorRemovalInitialized",
            "inputs": [
                {
                    "name": "validationID",
                    "type": "bytes32",
                    "indexed": true,
                    "internalType": "bytes32"
                },
                {
                    "name": "setWeightMessageID",
                    "type": "bytes32",
                    "indexed": true,
                    "internalType": "bytes32"
                },
                {
                    "name": "weight",
                    "type": "uint64",
                    "indexed": false,
                    "internalType": "uint64"
                },
                {
                    "name": "endTime",
                    "type": "uint256",
                    "indexed": false,
                    "internalType": "uint256"
                }
            ],
            "anonymous": false
        },
        {
            "type": "event",
            "name": "ValidatorWeightUpdate",
            "inputs": [
                {
                    "name": "validationID",
                    "type": "bytes32",
                    "indexed": true,
                    "internalType": "bytes32"
                },
                {
                    "name": "nonce",
                    "type": "uint64",
                    "indexed": true,
                    "internalType": "uint64"
                },
                {
                    "name": "weight",
                    "type": "uint64",
                    "indexed": false,
                    "internalType": "uint64"
                },
                {
                    "name": "setWeightMessageID",
                    "type": "bytes32",
                    "indexed": false,
                    "internalType": "bytes32"
                }
            ],
            "anonymous": false
        },
        {
            "type": "error",
            "name": "InvalidBLSKeyLength",
            "inputs": [
                {
                    "name": "length",
                    "type": "uint256",
                    "internalType": "uint256"
                }
            ]
        },
        {
            "type": "error",
            "name": "InvalidConversionID",
            "inputs": [
                {
                    "name": "encodedConversionID",
                    "type": "bytes32",
                    "internalType": "bytes32"
                },
                {
                    "name": "expectedConversionID",
                    "type": "bytes32",
                    "internalType": "bytes32"
                }
            ]
        },
        {
            "type": "error",
            "name": "InvalidInitialization",
            "inputs": []
        },
        {
            "type": "error",
            "name": "InvalidInitializationStatus",
            "inputs": []
        },
        {
            "type": "error",
            "name": "InvalidMaximumChurnPercentage",
            "inputs": [
                {
                    "name": "maximumChurnPercentage",
                    "type": "uint8",
                    "internalType": "uint8"
                }
            ]
        },
        {
            "type": "error",
            "name": "InvalidNodeID",
            "inputs": [
                {
                    "name": "nodeID",
                    "type": "bytes",
                    "internalType": "bytes"
                }
            ]
        },
        {
            "type": "error",
            "name": "InvalidPChainOwnerThreshold",
            "inputs": [
                {
                    "name": "threshold",
                    "type": "uint256",
                    "internalType": "uint256"
                },
                {
                    "name": "addressesLength",
                    "type": "uint256",
                    "internalType": "uint256"
                }
            ]
        },
        {
            "type": "error",
            "name": "InvalidRegistrationExpiry",
            "inputs": [
                {
                    "name": "registrationExpiry",
                    "type": "uint64",
                    "internalType": "uint64"
                }
            ]
        },
        {
            "type": "error",
            "name": "InvalidTotalWeight",
            "inputs": [
                {
                    "name": "weight",
                    "type": "uint64",
                    "internalType": "uint64"
                }
            ]
        },
        {
            "type": "error",
            "name": "InvalidValidationID",
            "inputs": [
                {
                    "name": "validationID",
                    "type": "bytes32",
                    "internalType": "bytes32"
                }
            ]
        },
        {
            "type": "error",
            "name": "InvalidValidatorManagerAddress",
            "inputs": [
                {
                    "name": "validatorManagerAddress",
                    "type": "address",
                    "internalType": "address"
                }
            ]
        },
        {
            "type": "error",
            "name": "InvalidValidatorManagerBlockchainID",
            "inputs": [
                {
                    "name": "blockchainID",
                    "type": "bytes32",
                    "internalType": "bytes32"
                }
            ]
        },
        {
            "type": "error",
            "name": "InvalidValidatorStatus",
            "inputs": [
                {
                    "name": "status",
                    "type": "uint8",
                    "internalType": "enum ValidatorStatus"
                }
            ]
        },
        {
            "type": "error",
            "name": "InvalidWarpMessage",
            "inputs": []
        },
        {
            "type": "error",
            "name": "InvalidWarpOriginSenderAddress",
            "inputs": [
                {
                    "name": "senderAddress",
                    "type": "address",
                    "internalType": "address"
                }
            ]
        },
        {
            "type": "error",
            "name": "InvalidWarpSourceChainID",
            "inputs": [
                {
                    "name": "sourceChainID",
                    "type": "bytes32",
                    "internalType": "bytes32"
                }
            ]
        },
        {
            "type": "error",
            "name": "MaxChurnRateExceeded",
            "inputs": [
                {
                    "name": "churnAmount",
                    "type": "uint64",
                    "internalType": "uint64"
                }
            ]
        },
        {
            "type": "error",
            "name": "NodeAlreadyRegistered",
            "inputs": [
                {
                    "name": "nodeID",
                    "type": "bytes",
                    "internalType": "bytes"
                }
            ]
        },
        {
            "type": "error",
            "name": "NotInitializing",
            "inputs": []
        },
        {
            "type": "error",
            "name": "OwnableInvalidOwner",
            "inputs": [
                {
                    "name": "owner",
                    "type": "address",
                    "internalType": "address"
                }
            ]
        },
        {
            "type": "error",
            "name": "OwnableUnauthorizedAccount",
            "inputs": [
                {
                    "name": "account",
                    "type": "address",
                    "internalType": "address"
                }
            ]
        },
        {
            "type": "error",
            "name": "PChainOwnerAddressesNotSorted",
            "inputs": []
        },
        {
            "type": "error",
            "name": "UnexpectedRegistrationStatus",
            "inputs": [
                {
                    "name": "validRegistration",
                    "type": "bool",
                    "internalType": "bool"
                }
            ]
        }
    ],
    "bytecode": {
        "object": "0x608060405234801561000f575f80fd5b506040516137df3803806137df83398101604081905261002e91610107565b60018160018111156100425761004261012c565b0361004f5761004f610055565b50610140565b7ff0c57e16840df040f15088dc2f81fe391c3923bec73e23a9662efc9c229c6a00805468010000000000000000900460ff16156100a55760405163f92ee8a960e01b815260040160405180910390fd5b80546001600160401b03908116146101045780546001600160401b0319166001600160401b0390811782556040519081527fc7f505b2f371ae2175ee4913f4499e1f2633a7b5936321eed1cdaeb6115181d29060200160405180910390a15b50565b5f60208284031215610117575f80fd5b815160028110610125575f80fd5b9392505050565b634e487b7160e01b5f52602160045260245ffd5b6136928061014d5f395ff3fe608060405234801561000f575f80fd5b5060043610610132575f3560e01c80639ba96b86116100b4578063c974d1b611610079578063c974d1b6146102a7578063d588c18f146102af578063d5f20ff6146102c2578063df93d8de146102e2578063f2fde38b146102ec578063fd7ac5e7146102ff575f80fd5b80639ba96b861461024c578063a3a65e481461025f578063b771b3bc14610272578063bc5fbfec14610280578063bee0a03f14610294575f80fd5b8063715018a6116100fa578063715018a6146101be578063732214f8146101c65780638280a25a146101db5780638da5cb5b146101f557806397fb70d414610239575f80fd5b80630322ed981461013657806320d91b7a1461014b578063467ef06f1461015e57806360305d621461017157806366435abf14610193575b5f80fd5b61014961014436600461280a565b610312565b005b610149610159366004612839565b6105a2565b61014961016c366004612887565b610b5d565b610179601481565b60405163ffffffff90911681526020015b60405180910390f35b6101a66101a136600461280a565b610b6b565b6040516001600160401b03909116815260200161018a565b610149610b7f565b6101cd5f81565b60405190815260200161018a565b6101e3603081565b60405160ff909116815260200161018a565b7f9016d09d72d40fdae2fd8ceac6b6234c7706214fd39c1cd1e609a0528c199300546001600160a01b03165b6040516001600160a01b03909116815260200161018a565b61014961024736600461280a565b610b92565b6101cd61025a3660046128b6565b610ba7565b61014961026d366004612887565b610bc3565b6102216005600160991b0181565b6101cd5f8051602061364683398151915281565b6101496102a236600461280a565b610db9565b6101e3601481565b6101496102bd36600461290f565b610ef5565b6102d56102d036600461280a565b611003565b60405161018a91906129cc565b6101a66202a30081565b6101496102fa366004612a4c565b611152565b6101cd61030d366004612a6e565b61118f565b5f8181525f805160206136668339815191526020526040808220815160e0810190925280545f8051602061364683398151915293929190829060ff16600581111561035f5761035f61294b565b60058111156103705761037061294b565b815260200160018201805461038490612ad9565b80601f01602080910402602001604051908101604052809291908181526020018280546103b090612ad9565b80156103fb5780601f106103d2576101008083540402835291602001916103fb565b820191905f5260205f20905b8154815290600101906020018083116103de57829003601f168201915b505050918352505060028201546001600160401b038082166020840152600160401b820481166040840152600160801b820481166060840152600160c01b909104811660808301526003928301541660a090910152909150815160058111156104665761046661294b565b146104a2575f8381526005830160205260409081902054905163170cc93360e21b81526104999160ff1690600401612b11565b60405180910390fd5b606081015160405163854a893f60e01b8152600481018590526001600160401b0390911660248201525f60448201526005600160991b019063ee5b48eb9073__$fd0c147b4031eef6079b0498cbafa865f0$__9063854a893f906064015f60405180830381865af4158015610519573d5f803e3d5ffd5b505050506040513d5f823e601f3d908101601f191682016040526105409190810190612c22565b6040518263ffffffff1660e01b815260040161055c9190612c53565b6020604051808303815f875af1158015610578573d5f803e3d5ffd5b505050506040513d601f19601f8201168201806040525081019061059c9190612c65565b50505050565b7fe92546d698950ddd38910d2e15ed1d923cd0a7b3dde9e2a6a3f380565559cb07545f805160206136468339815191529060ff16156105f457604051637fab81e560e01b815260040160405180910390fd5b6005600160991b016001600160a01b0316634213cf786040518163ffffffff1660e01b8152600401602060405180830381865afa158015610637573d5f803e3d5ffd5b505050506040513d601f19601f8201168201806040525081019061065b9190612c65565b836020013514610684576040516372b0a7e760e11b815260208401356004820152602401610499565b306106956060850160408601612a4c565b6001600160a01b0316146106d8576106b36060840160408501612a4c565b604051632f88120d60e21b81526001600160a01b039091166004820152602401610499565b5f6106e66060850185612c7c565b905090505f805b828163ffffffff16101561094e575f6107096060880188612c7c565b8363ffffffff1681811061071f5761071f612cc1565b90506020028101906107319190612cd5565b61073a90612d40565b80516040519192505f91600688019161075291612db9565b9081526020016040518091039020541461078257805160405163a41f772f60e01b81526104999190600401612c53565b5f6002885f0135846040516020016107b192919091825260e01b6001600160e01b031916602082015260240190565b60408051601f19818403018152908290526107cb91612db9565b602060405180830381855afa1580156107e6573d5f803e3d5ffd5b5050506040513d601f19601f820116820180604052508101906108099190612c65565b90508086600601835f01516040516108219190612db9565b90815260408051918290036020908101909220929092555f8381526005890190915220805460ff1916600217815582516001909101906108619082612e15565b50604082810180515f84815260058a016020529290922060028101805492516001600160401b039485166001600160c01b031990941693909317600160801b85851602176001600160c01b0316600160c01b429590951694909402939093179092556003909101805467ffffffffffffffff191690556108e19085612ee8565b82516040519195506108f291612db9565b60408051918290038220908401516001600160401b031682529082907ffe3e5983f71c8253fb0b678f2bc587aa8574d8f1aab9cf82b983777f5998392c9060200160405180910390a350508061094790612f08565b90506106ed565b506003830180546fffffffffffffffff00000000000000001916600160401b6001600160401b0384168102919091179091556001840154606491610996910460ff1683612f2a565b6001600160401b031610156109c957604051633e1a785160e01b81526001600160401b0382166004820152602401610499565b5f73__$fd0c147b4031eef6079b0498cbafa865f0$__634d8478846109ed876111ea565b604001516040518263ffffffff1660e01b8152600401610a0d9190612c53565b602060405180830381865af4158015610a28573d5f803e3d5ffd5b505050506040513d601f19601f82011682018060405250810190610a4c9190612c65565b90505f73__$fd0c147b4031eef6079b0498cbafa865f0$__6387418b8e886040518263ffffffff1660e01b8152600401610a869190613078565b5f60405180830381865af4158015610aa0573d5f803e3d5ffd5b505050506040513d5f823e601f3d908101601f19168201604052610ac79190810190612c22565b90505f600282604051610ada9190612db9565b602060405180830381855afa158015610af5573d5f803e3d5ffd5b5050506040513d601f19601f82011682018060405250810190610b189190612c65565b9050828114610b445760405163baaea89d60e01b81526004810182905260248101849052604401610499565b5050506007909201805460ff1916600117905550505050565b610b6681611300565b505050565b5f610b7582611003565b6080015192915050565b610b876116b8565b610b905f611713565b565b610b9a6116b8565b610ba381611783565b5050565b5f610bb06116b8565b610bba8383611a68565b90505b92915050565b5f805160206136468339815191525f8073__$fd0c147b4031eef6079b0498cbafa865f0$__63021de88f610bf6866111ea565b604001516040518263ffffffff1660e01b8152600401610c169190612c53565b6040805180830381865af4158015610c30573d5f803e3d5ffd5b505050506040513d601f19601f82011682018060405250810190610c54919061311b565b9150915080610c7a57604051632d07135360e01b81528115156004820152602401610499565b5f82815260048401602052604090208054610c9490612ad9565b90505f03610cb85760405163089938b360e11b815260048101839052602401610499565b60015f838152600580860160205260409091205460ff1690811115610cdf57610cdf61294b565b14610d12575f8281526005840160205260409081902054905163170cc93360e21b81526104999160ff1690600401612b11565b5f8281526004840160205260408120610d2a9161277e565b5f828152600584016020908152604091829020805460ff1916600290811782550180546001600160401b0342818116600160c01b026001600160c01b0390931692909217928390558451600160801b9093041682529181019190915283917f8629ec2bfd8d3b792ba269096bb679e08f20ba2caec0785ef663cf94788e349b910160405180910390a250505050565b5f8181527fe92546d698950ddd38910d2e15ed1d923cd0a7b3dde9e2a6a3f380565559cb046020526040902080545f805160206136468339815191529190610e0090612ad9565b90505f03610e245760405163089938b360e11b815260048101839052602401610499565b60015f838152600580840160205260409091205460ff1690811115610e4b57610e4b61294b565b14610e7e575f8281526005820160205260409081902054905163170cc93360e21b81526104999160ff1690600401612b11565b5f8281526004808301602052604091829020915163ee5b48eb60e01b81526005600160991b019263ee5b48eb92610eb5920161313c565b6020604051808303815f875af1158015610ed1573d5f803e3d5ffd5b505050506040513d601f19601f82011682018060405250810190610b669190612c65565b7ff0c57e16840df040f15088dc2f81fe391c3923bec73e23a9662efc9c229c6a008054600160401b810460ff1615906001600160401b03165f81158015610f395750825b90505f826001600160401b03166001148015610f545750303b155b905081158015610f62575080155b15610f805760405163f92ee8a960e01b815260040160405180910390fd5b845467ffffffffffffffff191660011785558315610faa57845460ff60401b1916600160401b1785555b610fb48787611fda565b8315610ffa57845460ff60401b19168555604051600181527fc7f505b2f371ae2175ee4913f4499e1f2633a7b5936321eed1cdaeb6115181d29060200160405180910390a15b50505050505050565b61100b6127b5565b5f8281525f80516020613666833981519152602052604090819020815160e0810190925280545f80516020613646833981519152929190829060ff1660058111156110585761105861294b565b60058111156110695761106961294b565b815260200160018201805461107d90612ad9565b80601f01602080910402602001604051908101604052809291908181526020018280546110a990612ad9565b80156110f45780601f106110cb576101008083540402835291602001916110f4565b820191905f5260205f20905b8154815290600101906020018083116110d757829003601f168201915b505050918352505060028201546001600160401b038082166020840152600160401b820481166040840152600160801b820481166060840152600160c01b9091048116608083015260039092015490911660a0909101529392505050565b61115a6116b8565b6001600160a01b03811661118357604051631e4fbdf760e01b81525f6004820152602401610499565b61118c81611713565b50565b6040515f905f80516020613646833981519152907fe92546d698950ddd38910d2e15ed1d923cd0a7b3dde9e2a6a3f380565559cb06906111d290869086906131c6565b90815260200160405180910390205491505092915050565b60408051606080820183525f8083526020830152918101919091526040516306f8253560e41b815263ffffffff831660048201525f9081906005600160991b0190636f825350906024015f60405180830381865afa15801561124e573d5f803e3d5ffd5b505050506040513d5f823e601f3d908101601f1916820160405261127591908101906131d5565b915091508061129757604051636b2f19e960e01b815260040160405180910390fd5b8151156112bd578151604051636ba589a560e01b81526004810191909152602401610499565b60208201516001600160a01b0316156112f9576020820151604051624de75d60e31b81526001600160a01b039091166004820152602401610499565b5092915050565b5f6113096127b5565b5f805160206136468339815191525f8073__$fd0c147b4031eef6079b0498cbafa865f0$__63021de88f61133c886111ea565b604001516040518263ffffffff1660e01b815260040161135c9190612c53565b6040805180830381865af4158015611376573d5f803e3d5ffd5b505050506040513d601f19601f8201168201806040525081019061139a919061311b565b9150915080156113c157604051632d07135360e01b81528115156004820152602401610499565b5f82815260058085016020526040808320815160e08101909252805491929091839160ff909116908111156113f8576113f861294b565b60058111156114095761140961294b565b815260200160018201805461141d90612ad9565b80601f016020809104026020016040519081016040528092919081815260200182805461144990612ad9565b80156114945780601f1061146b57610100808354040283529160200191611494565b820191905f5260205f20905b81548152906001019060200180831161147757829003601f168201915b505050918352505060028201546001600160401b038082166020840152600160401b820481166040840152600160801b820481166060840152600160c01b909104811660808301526003928301541660a090910152909150815160058111156114ff576114ff61294b565b14158015611520575060018151600581111561151d5761151d61294b565b14155b1561154157805160405163170cc93360e21b81526104999190600401612b11565b6003815160058111156115565761155661294b565b036115645760048152611569565b600581525b83600601816020015160405161157f9190612db9565b90815260408051602092819003830190205f90819055858152600587810190935220825181548493839160ff19169060019084908111156115c2576115c261294b565b0217905550602082015160018201906115db9082612e15565b5060408201516002820180546060850151608086015160a08701516001600160401b039586166001600160801b031990941693909317600160401b92861692909202919091176001600160801b0316600160801b918516919091026001600160c01b031617600160c01b9184169190910217905560c0909201516003909101805467ffffffffffffffff191691909216179055805160058111156116815761168161294b565b60405184907f1c08e59656f1a18dc2da76826cdc52805c43e897a17c50faefb8ab3c1526cc16905f90a39196919550909350505050565b336116ea7f9016d09d72d40fdae2fd8ceac6b6234c7706214fd39c1cd1e609a0528c199300546001600160a01b031690565b6001600160a01b031614610b905760405163118cdaa760e01b8152336004820152602401610499565b7f9016d09d72d40fdae2fd8ceac6b6234c7706214fd39c1cd1e609a0528c19930080546001600160a01b031981166001600160a01b03848116918217845560405192169182907f8be0079c531659141344cd1fd0a4f28419497f9722a3daafe3b4186f6b6457e0905f90a3505050565b61178b6127b5565b5f8281525f805160206136668339815191526020526040808220815160e0810190925280545f8051602061364683398151915293929190829060ff1660058111156117d8576117d861294b565b60058111156117e9576117e961294b565b81526020016001820180546117fd90612ad9565b80601f016020809104026020016040519081016040528092919081815260200182805461182990612ad9565b80156118745780601f1061184b57610100808354040283529160200191611874565b820191905f5260205f20905b81548152906001019060200180831161185757829003601f168201915b50505091835250506002828101546001600160401b038082166020850152600160401b820481166040850152600160801b820481166060850152600160c01b9091048116608084015260039093015490921660a090910152909150815160058111156118e2576118e261294b565b14611915575f8481526005830160205260409081902054905163170cc93360e21b81526104999160ff1690600401612b11565b60038152426001600160401b031660c08201525f84815260058381016020526040909120825181548493839160ff191690600190849081111561195a5761195a61294b565b0217905550602082015160018201906119739082612e15565b5060408201516002820180546060850151608086015160a08701516001600160401b039586166001600160801b031990941693909317600160401b92861692909202919091176001600160801b0316600160801b918516919091026001600160c01b031617600160c01b9184169190910217905560c0909201516003909101805467ffffffffffffffff1916919092161790555f611a118582611ff4565b6080840151604080516001600160401b03909216825242602083015291935083925087917ffbfc4c00cddda774e9bce93712e29d12887b46526858a1afb0937cce8c30fa42910160405180910390a3509392505050565b7fe92546d698950ddd38910d2e15ed1d923cd0a7b3dde9e2a6a3f380565559cb07545f9060ff16611aac57604051637fab81e560e01b815260040160405180910390fd5b5f8051602061364683398151915242611acb6060860160408701613262565b6001600160401b0316111580611b055750611ae96202a3004261327b565b611af96060860160408701613262565b6001600160401b031610155b15611b3f57611b1a6060850160408601613262565b604051635879da1360e11b81526001600160401b039091166004820152602401610499565b60038101546001600160401b0390611b6290600160401b9004821685831661327b565b1115611b8c57604051633e1a785160e01b81526001600160401b0384166004820152602401610499565b611ba1611b9c606086018661328e565b6121cb565b611bb1611b9c608086018661328e565b6030611bc060208601866132a2565b905014611bf257611bd460208501856132a2565b6040516326475b2f60e11b8152610499925060040190815260200190565b611bfc84806132a2565b90505f03611c2957611c0e84806132a2565b604051633e08a12560e11b81526004016104999291906132e4565b5f60068201611c3886806132a2565b604051611c469291906131c6565b90815260200160405180910390205414611c7f57611c6484806132a2565b60405163a41f772f60e01b81526004016104999291906132e4565b611c89835f612334565b6040805160e08101909152815481525f90819073__$fd0c147b4031eef6079b0498cbafa865f0$__9063eb97ce519060208101611cc68a806132a2565b8080601f0160208091040260200160405190810160405280939291908181526020018383808284375f92019190915250505090825250602090810190611d0e908b018b6132a2565b8080601f0160208091040260200160405190810160405280939291908181526020018383808284375f92019190915250505090825250602001611d5760608b0160408c01613262565b6001600160401b03168152602001611d7260608b018b61328e565b611d7b906132f7565b8152602001611d8d60808b018b61328e565b611d96906132f7565b8152602001886001600160401b03168152506040518263ffffffff1660e01b8152600401611dc49190613424565b5f60405180830381865af4158015611dde573d5f803e3d5ffd5b505050506040513d5f823e601f3d908101601f19168201604052611e0591908101906134db565b5f82815260048601602052604090209193509150611e238282612e15565b508160068401611e3388806132a2565b604051611e419291906131c6565b9081526040519081900360200181209190915563ee5b48eb60e01b81525f906005600160991b019063ee5b48eb90611e7d908590600401612c53565b6020604051808303815f875af1158015611e99573d5f803e3d5ffd5b505050506040513d601f19601f82011682018060405250810190611ebd9190612c65565b5f8481526005860160205260409020805460ff191660011790559050611ee387806132a2565b5f858152600587016020526040902060010191611f0191908361351e565b505f83815260058501602052604090206002810180546001600160c01b0319166001600160401b038916908117600160801b91909102176001600160c01b03169055600301805467ffffffffffffffff1916905580611f6088806132a2565b604051611f6e9291906131c6565b6040518091039020847fd8a184af94a03e121609cc5f803a446236793e920c7945abc6ba355c8a30cb49898b6040016020810190611fac9190613262565b604080516001600160401b0393841681529290911660208301520160405180910390a4509095945050505050565b611fe261259e565b611feb826125e7565b610ba381612600565b5f8281525f80516020613666833981519152602052604081206002015481905f8051602061364683398151915290600160801b90046001600160401b031661203c8582612334565b5f61204687612611565b5f888152600585016020526040808220600201805467ffffffffffffffff60801b1916600160801b6001600160401b038c811691820292909217909255915163854a893f60e01b8152600481018c905291841660248301526044820152919250906005600160991b019063ee5b48eb9073__$fd0c147b4031eef6079b0498cbafa865f0$__9063854a893f906064015f60405180830381865af41580156120ef573d5f803e3d5ffd5b505050506040513d5f823e601f3d908101601f191682016040526121169190810190612c22565b6040518263ffffffff1660e01b81526004016121329190612c53565b6020604051808303815f875af115801561214e573d5f803e3d5ffd5b505050506040513d601f19601f820116820180604052508101906121729190612c65565b604080516001600160401b038a811682526020820184905282519394508516928b927f07de5ff35a674a8005e661f3333c907ca6333462808762d19dc7b3abb1a8c1df928290030190a3909450925050505b9250929050565b6121d86020820182612887565b63ffffffff161580156121f857506121f36020820182612c7c565b151590505b1561223f5761220a6020820182612887565b6122176020830183612c7c565b60405163c08a0f1d60e01b815263ffffffff9093166004840152602483015250604401610499565b61224c6020820182612c7c565b905061225b6020830183612887565b63ffffffff1611156122745761220a6020820182612887565b60015b6122846020830183612c7c565b9050811015610ba35761229a6020830183612c7c565b6122a56001846135d7565b8181106122b4576122b4612cc1565b90506020020160208101906122c99190612a4c565b6001600160a01b03166122df6020840184612c7c565b838181106122ef576122ef612cc1565b90506020020160208101906123049190612a4c565b6001600160a01b0316101561232c57604051630dbc8d5f60e31b815260040160405180910390fd5b600101612277565b5f805160206136468339815191525f6001600160401b0380841690851611156123685761236183856135ea565b9050612375565b61237284846135ea565b90505b60408051608081018252600284015480825260038501546001600160401b038082166020850152600160401b8204811694840194909452600160801b90049092166060820152429115806123e25750600184015481516123de916001600160401b03169061327b565b8210155b1561240a576001600160401b0380841660608301528282526040820151166020820152612429565b828160600181815161241c9190612ee8565b6001600160401b03169052505b6060810151612439906064612f2a565b602082015160018601546001600160401b0392909216916124649190600160401b900460ff16612f2a565b6001600160401b0316101561249d57606081015160405163dfae880160e01b81526001600160401b039091166004820152602401610499565b85816040018181516124af9190612ee8565b6001600160401b03169052506040810180518691906124cf9083906135ea565b6001600160401b0316905250600184015460408201516064916124fd91600160401b90910460ff1690612f2a565b6001600160401b03161015612536576040808201519051633e1a785160e01b81526001600160401b039091166004820152602401610499565b8051600285015560208101516003909401805460408301516060909301516001600160401b03908116600160801b0267ffffffffffffffff60801b19948216600160401b026001600160801b0319909316919097161717919091169390931790925550505050565b7ff0c57e16840df040f15088dc2f81fe391c3923bec73e23a9662efc9c229c6a0054600160401b900460ff16610b9057604051631afcd79f60e31b815260040160405180910390fd5b6125ef61259e565b6125f7612686565b61118c8161268e565b61260861259e565b61118c81612776565b5f8181525f805160206136668339815191526020526040812060020180545f80516020613646833981519152919060089061265b90600160401b90046001600160401b031661360a565b91906101000a8154816001600160401b0302191690836001600160401b031602179055915050919050565b610b9061259e565b61269661259e565b80355f8051602061364683398151915290815560146126bb6060840160408501613625565b60ff1611806126da57506126d56060830160408401613625565b60ff16155b1561270e576126ef6060830160408401613625565b604051634a59bbff60e11b815260ff9091166004820152602401610499565b61271e6060830160408401613625565b60018201805460ff92909216600160401b0260ff60401b1990921691909117905561274f6040830160208401613262565b600191909101805467ffffffffffffffff19166001600160401b0390921691909117905550565b61115a61259e565b50805461278a90612ad9565b5f825580601f10612799575050565b601f0160209004905f5260205f209081019061118c91906127f2565b6040805160e08101909152805f81526060602082018190525f604083018190529082018190526080820181905260a0820181905260c09091015290565b5b80821115612806575f81556001016127f3565b5090565b5f6020828403121561281a575f80fd5b5035919050565b803563ffffffff81168114612834575f80fd5b919050565b5f806040838503121561284a575f80fd5b82356001600160401b0381111561285f575f80fd5b830160808186031215612870575f80fd5b915061287e60208401612821565b90509250929050565b5f60208284031215612897575f80fd5b610bba82612821565b80356001600160401b0381168114612834575f80fd5b5f80604083850312156128c7575f80fd5b82356001600160401b038111156128dc575f80fd5b830160a081860312156128ed575f80fd5b915061287e602084016128a0565b6001600160a01b038116811461118c575f80fd5b5f808284036080811215612921575f80fd5b606081121561292e575f80fd5b508291506060830135612940816128fb565b809150509250929050565b634e487b7160e01b5f52602160045260245ffd5b6006811061297b57634e487b7160e01b5f52602160045260245ffd5b9052565b5f5b83811015612999578181015183820152602001612981565b50505f910152565b5f81518084526129b881602086016020860161297f565b601f01601f19169290920160200192915050565b602081526129de60208201835161295f565b5f602083015160e060408401526129f96101008401826129a1565b905060408401516001600160401b0380821660608601528060608701511660808601528060808701511660a08601528060a08701511660c08601528060c08701511660e086015250508091505092915050565b5f60208284031215612a5c575f80fd5b8135612a67816128fb565b9392505050565b5f8060208385031215612a7f575f80fd5b82356001600160401b0380821115612a95575f80fd5b818501915085601f830112612aa8575f80fd5b813581811115612ab6575f80fd5b866020828501011115612ac7575f80fd5b60209290920196919550909350505050565b600181811c90821680612aed57607f821691505b602082108103612b0b57634e487b7160e01b5f52602260045260245ffd5b50919050565b60208101610bbd828461295f565b634e487b7160e01b5f52604160045260245ffd5b604051606081016001600160401b0381118282101715612b5557612b55612b1f565b60405290565b604080519081016001600160401b0381118282101715612b5557612b55612b1f565b604051601f8201601f191681016001600160401b0381118282101715612ba557612ba5612b1f565b604052919050565b5f6001600160401b03821115612bc557612bc5612b1f565b50601f01601f191660200190565b5f82601f830112612be2575f80fd5b8151612bf5612bf082612bad565b612b7d565b818152846020838601011115612c09575f80fd5b612c1a82602083016020870161297f565b949350505050565b5f60208284031215612c32575f80fd5b81516001600160401b03811115612c47575f80fd5b612c1a84828501612bd3565b602081525f610bba60208301846129a1565b5f60208284031215612c75575f80fd5b5051919050565b5f808335601e19843603018112612c91575f80fd5b8301803591506001600160401b03821115612caa575f80fd5b6020019150600581901b36038213156121c4575f80fd5b634e487b7160e01b5f52603260045260245ffd5b5f8235605e19833603018112612ce9575f80fd5b9190910192915050565b5f82601f830112612d02575f80fd5b8135612d10612bf082612bad565b818152846020838601011115612d24575f80fd5b816020850160208301375f918101602001919091529392505050565b5f60608236031215612d50575f80fd5b612d58612b33565b82356001600160401b0380821115612d6e575f80fd5b612d7a36838701612cf3565b83526020850135915080821115612d8f575f80fd5b50612d9c36828601612cf3565b602083015250612dae604084016128a0565b604082015292915050565b5f8251612ce981846020870161297f565b601f821115610b6657805f5260205f20601f840160051c81016020851015612def5750805b601f840160051c820191505b81811015612e0e575f8155600101612dfb565b5050505050565b81516001600160401b03811115612e2e57612e2e612b1f565b612e4281612e3c8454612ad9565b84612dca565b602080601f831160018114612e75575f8415612e5e5750858301515b5f19600386901b1c1916600185901b178555612ecc565b5f85815260208120601f198616915b82811015612ea357888601518255948401946001909101908401612e84565b5085821015612ec057878501515f19600388901b60f8161c191681555b505060018460011b0185555b505050505050565b634e487b7160e01b5f52601160045260245ffd5b6001600160401b038181168382160190808211156112f9576112f9612ed4565b5f63ffffffff808316818103612f2057612f20612ed4565b6001019392505050565b6001600160401b03818116838216028082169190828114612f4d57612f4d612ed4565b505092915050565b5f808335601e19843603018112612f6a575f80fd5b83016020810192503590506001600160401b03811115612f88575f80fd5b8036038213156121c4575f80fd5b81835281816020850137505f828201602090810191909152601f909101601f19169091010190565b5f8383855260208086019550808560051b830101845f5b8781101561306b57848303601f19018952813536889003605e19018112612ffa575f80fd5b870160606130088280612f55565b8287526130188388018284612f96565b9250505061302886830183612f55565b8683038888015261303a838284612f96565b9250505060406001600160401b036130538285016128a0565b16950194909452509783019790830190600101612fd5565b5090979650505050505050565b6020815281356020820152602082013560408201525f604083013561309c816128fb565b6001600160a01b031660608381019190915283013536849003601e190181126130c3575f80fd5b83016020810190356001600160401b038111156130de575f80fd5b8060051b36038213156130ef575f80fd5b60808085015261310360a085018284612fbe565b95945050505050565b80518015158114612834575f80fd5b5f806040838503121561312c575f80fd5b8251915061287e6020840161310c565b5f60208083525f845461314e81612ad9565b806020870152604060018084165f811461316f576001811461318b576131b8565b60ff19851660408a0152604084151560051b8a010195506131b8565b895f5260205f205f5b858110156131af5781548b8201860152908301908801613194565b8a016040019650505b509398975050505050505050565b818382375f9101908152919050565b5f80604083850312156131e6575f80fd5b82516001600160401b03808211156131fc575f80fd5b908401906060828703121561320f575f80fd5b613217612b33565b825181526020830151613229816128fb565b602082015260408301518281111561323f575f80fd5b61324b88828601612bd3565b604083015250935061287e9150506020840161310c565b5f60208284031215613272575f80fd5b610bba826128a0565b80820180821115610bbd57610bbd612ed4565b5f8235603e19833603018112612ce9575f80fd5b5f808335601e198436030181126132b7575f80fd5b8301803591506001600160401b038211156132d0575f80fd5b6020019150368190038213156121c4575f80fd5b602081525f612c1a602083018486612f96565b5f60408236031215613307575f80fd5b61330f612b5b565b61331883612821565b81526020808401356001600160401b0380821115613334575f80fd5b9085019036601f830112613346575f80fd5b81358181111561335857613358612b1f565b8060051b9150613369848301612b7d565b8181529183018401918481019036841115613382575f80fd5b938501935b838510156133ac578435925061339c836128fb565b8282529385019390850190613387565b94860194909452509295945050505050565b5f6040830163ffffffff8351168452602080840151604060208701528281518085526060880191506020830194505f92505b808310156134195784516001600160a01b031682529383019360019290920191908301906133f0565b509695505050505050565b60208152815160208201525f602083015160e0604084015261344a6101008401826129a1565b90506040840151601f198085840301606086015261346883836129a1565b92506001600160401b03606087015116608086015260808601519150808584030160a086015261349883836133be565b925060a08601519150808584030160c0860152506134b682826133be565b91505060c08401516134d360e08501826001600160401b03169052565b509392505050565b5f80604083850312156134ec575f80fd5b8251915060208301516001600160401b03811115613508575f80fd5b61351485828601612bd3565b9150509250929050565b6001600160401b0383111561353557613535612b1f565b613549836135438354612ad9565b83612dca565b5f601f84116001811461357a575f85156135635750838201355b5f19600387901b1c1916600186901b178355612e0e565b5f83815260208120601f198716915b828110156135a95786850135825560209485019460019092019101613589565b50868210156135c5575f1960f88860031b161c19848701351681555b505060018560011b0183555050505050565b81810381811115610bbd57610bbd612ed4565b6001600160401b038281168282160390808211156112f9576112f9612ed4565b5f6001600160401b03808316818103612f2057612f20612ed4565b5f60208284031215613635575f80fd5b813560ff81168114612a67575f80fdfee92546d698950ddd38910d2e15ed1d923cd0a7b3dde9e2a6a3f380565559cb00e92546d698950ddd38910d2e15ed1d923cd0a7b3dde9e2a6a3f380565559cb05a164736f6c6343000819000a",
        "linkReferences": {
            "contracts/validator-manager/ValidatorMessages.sol": {
                "ValidatorMessages": [
                    {
                        "start": 1583,
                        "length": 20
                    },
                    {
                        "start": 2841,
                        "length": 20
                    },
                    {
                        "start": 2974,
                        "length": 20
                    },
                    {
                        "start": 3362,
                        "length": 20
                    },
                    {
                        "start": 5224,
                        "length": 20
                    },
                    {
                        "start": 7659,
                        "length": 20
                    },
                    {
                        "start": 8709,
                        "length": 20
                    }
                ]
            }
        }
    },
    "methodIdentifiers": {
        "ADDRESS_LENGTH()": "60305d62",
        "BLS_PUBLIC_KEY_LENGTH()": "8280a25a",
        "MAXIMUM_CHURN_PERCENTAGE_LIMIT()": "c974d1b6",
        "MAXIMUM_REGISTRATION_EXPIRY_LENGTH()": "df93d8de",
        "P_CHAIN_BLOCKCHAIN_ID()": "732214f8",
        "VALIDATOR_MANAGER_STORAGE_LOCATION()": "bc5fbfec",
        "WARP_MESSENGER()": "b771b3bc",
        "completeEndValidation(uint32)": "467ef06f",
        "completeValidatorRegistration(uint32)": "a3a65e48",
        "getValidator(bytes32)": "d5f20ff6",
        "getWeight(bytes32)": "66435abf",
        "initialize((bytes32,uint64,uint8),address)": "d588c18f",
        "initializeEndValidation(bytes32)": "97fb70d4",
        "initializeValidatorRegistration((bytes,bytes,uint64,(uint32,address[]),(uint32,address[])),uint64)": "9ba96b86",
        "initializeValidatorSet((bytes32,bytes32,address,(bytes,bytes,uint64)[]),uint32)": "20d91b7a",
        "owner()": "8da5cb5b",
        "registeredValidators(bytes)": "fd7ac5e7",
        "renounceOwnership()": "715018a6",
        "resendEndValidatorMessage(bytes32)": "0322ed98",
        "resendRegisterValidatorMessage(bytes32)": "bee0a03f",
        "transferOwnership(address)": "f2fde38b"
    },
    "id": 94
}